{
  "contractName": "Oracle",
  "abi": [
    {
      "anonymous": false,
      "inputs": [
        {
          "indexed": false,
          "internalType": "uint256",
          "name": "id",
          "type": "uint256"
        },
        {
          "indexed": false,
          "internalType": "string",
          "name": "urlToQuery",
          "type": "string"
        },
        {
          "indexed": false,
          "internalType": "string",
          "name": "attributeToFetch",
          "type": "string"
        }
      ],
      "name": "NewRequest",
      "type": "event"
    },
    {
      "anonymous": false,
      "inputs": [
        {
          "indexed": false,
          "internalType": "uint256",
          "name": "id",
          "type": "uint256"
        },
        {
          "indexed": false,
          "internalType": "string",
          "name": "urlToQuery",
          "type": "string"
        },
        {
          "indexed": false,
          "internalType": "string",
          "name": "attributeToFetch",
          "type": "string"
        },
        {
          "indexed": false,
          "internalType": "string",
          "name": "agreedValue",
          "type": "string"
        }
      ],
      "name": "UpdatedRequest",
      "type": "event"
    },
    {
      "constant": false,
      "inputs": [
        {
          "internalType": "string",
          "name": "_urlToQuery",
          "type": "string"
        },
        {
          "internalType": "string",
          "name": "_attributeToFetch",
          "type": "string"
        }
      ],
      "name": "createRequest",
      "outputs": [],
      "payable": false,
      "stateMutability": "nonpayable",
      "type": "function"
    },
    {
      "constant": false,
      "inputs": [
        {
          "internalType": "uint256",
          "name": "_id",
          "type": "uint256"
        },
        {
          "internalType": "string",
          "name": "_valueRetrieved",
          "type": "string"
        }
      ],
      "name": "updateRequest",
      "outputs": [],
      "payable": false,
      "stateMutability": "nonpayable",
      "type": "function"
    }
  ],
  "bytecode": "0x608060405260036000556003600255600060035534801561001f57600080fd5b50610b068061002f6000396000f3fe608060405234801561001057600080fd5b50600436106100365760003560e01c8063cfb0ac991461003b578063df89f81914610100575b600080fd5b6100fe6004803603604081101561005157600080fd5b81019080803590602001909291908035906020019064010000000081111561007857600080fd5b82018360208201111561008a57600080fd5b803590602001918460018302840111640100000000831117156100ac57600080fd5b91908080601f016020809104026020016040519081016040528093929190818152602001838380828437600081840152601f19601f820116905080830192505050505050509192919290505050610252565b005b6102506004803603604081101561011657600080fd5b810190808035906020019064010000000081111561013357600080fd5b82018360208201111561014557600080fd5b8035906020019184600183028401116401000000008311171561016757600080fd5b91908080601f016020809104026020016040519081016040528093929190818152602001838380828437600081840152601f19601f820116905080830192505050505050509192919290803590602001906401000000008111156101ca57600080fd5b8201836020820111156101dc57600080fd5b803590602001918460018302840111640100000000831117156101fe57600080fd5b91908080601f016020809104026020016040519081016040528093929190818152602001838380828437600081840152601f19601f820116905080830192505050505050509192919290505050610689565b005b60006001838154811061026157fe5b9060005260206000209060060201905060018160050160003373ffffffffffffffffffffffffffffffffffffffff1673ffffffffffffffffffffffffffffffffffffffff1681526020019081526020016000205414156106845760028160050160003373ffffffffffffffffffffffffffffffffffffffff1673ffffffffffffffffffffffffffffffffffffffff16815260200190815260200160002081905550600080905060008090505b80610380576000836004016000848152602001908152602001600020805460018160011615610100020316600290049050141561037357600190508383600401600084815260200190815260200160002090805190602001906103719291906109ac565b505b818060010192505061030d565b600080905060008090505b60025481101561067f5760608560040160008381526020019081526020016000208054600181600116156101000203166002900480601f0160208091040260200160405190810160405280929190818152602001828054600181600116156101000203166002900480156104405780601f1061041557610100808354040283529160200191610440565b820191906000526020600020905b81548152906001019060200180831161042357829003601f168201915b505050505090506060879050808051906020012082805190602001201415610670578380600101945050600054841061066f578787600301908051906020019061048b9291906109ac565b507f51f1e1f00d186e79f8ea7c82be079fcdd49fe881904a9cdc1903345eb69d3831876000015488600101896002018a600301604051808581526020018060200180602001806020018481038452878181546001816001161561010002031660029004815260200191508054600181600116156101000203166002900480156105555780601f1061052a57610100808354040283529160200191610555565b820191906000526020600020905b81548152906001019060200180831161053857829003601f168201915b50508481038352868181546001816001161561010002031660029004815260200191508054600181600116156101000203166002900480156105d85780601f106105ad576101008083540402835291602001916105d8565b820191906000526020600020905b8154815290600101906020018083116105bb57829003601f168201915b505084810382528581815460018160011615610100020316600290048152602001915080546001816001161561010002031660029004801561065b5780601f106106305761010080835404028352916020019161065b565b820191906000526020600020905b81548152906001019060200180831161063e57829003601f168201915b505097505050505050505060405180910390a15b5b5050808060010191505061038b565b505050505b505050565b60006001604051806080016040528060035481526020018581526020018481526020016040518060200160405280600081525081525090806001815401808255809150509060018203906000526020600020906006020160009091929091909150600082015181600001556020820151816001019080519060200190610710929190610a2c565b50604082015181600201908051906020019061072d929190610a2c565b50606082015181600301908051906020019061074a929190610a2c565b5050509050600060018083038154811061076057fe5b906000526020600020906006020190506001816005016000736c2339b46f41a06f09ca0051ddad54d1e582ba7773ffffffffffffffffffffffffffffffffffffffff1673ffffffffffffffffffffffffffffffffffffffff16815260200190815260200160002081905550600181600501600073b5346cf224c02186606e5f89eacc21ec2539807773ffffffffffffffffffffffffffffffffffffffff1673ffffffffffffffffffffffffffffffffffffffff16815260200190815260200160002081905550600181600501600073a2997f1ca363d11a0a35bb1ac0ff7849bc13e91473ffffffffffffffffffffffffffffffffffffffff1673ffffffffffffffffffffffffffffffffffffffff168152602001908152602001600020819055507f0312239616abfb14f7ffa065155abb0ca047274d86c965890db4c8a48b8ce4b66003548585604051808481526020018060200180602001838103835285818151815260200191508051906020019080838360005b838110156108f15780820151818401526020810190506108d6565b50505050905090810190601f16801561091e5780820380516001836020036101000a031916815260200191505b50838103825284818151815260200191508051906020019080838360005b8381101561095757808201518184015260208101905061093c565b50505050905090810190601f1680156109845780820380516001836020036101000a031916815260200191505b509550505050505060405180910390a160036000815480929190600101919050555050505050565b828054600181600116156101000203166002900490600052602060002090601f016020900481019282601f106109ed57805160ff1916838001178555610a1b565b82800160010185558215610a1b579182015b82811115610a1a5782518255916020019190600101906109ff565b5b509050610a289190610aac565b5090565b828054600181600116156101000203166002900490600052602060002090601f016020900481019282601f10610a6d57805160ff1916838001178555610a9b565b82800160010185558215610a9b579182015b82811115610a9a578251825591602001919060010190610a7f565b5b509050610aa89190610aac565b5090565b610ace91905b80821115610aca576000816000905550600101610ab2565b5090565b9056fea265627a7a72315820c063050c473bee75d1643abd78beb60d240f2e5404f92d32c46b04c122b6f01c64736f6c63430005100032",
  "source": "pragma solidity >=0.4.21 <0.6.0;\n\ncontract Oracle {\n  uint minQuorum = 3;\n  Request[] requests;\n  uint totalOracleCount = 3;\n  uint currentId = 0;  \n\n\n  struct Request {\n    uint id;\n    string urlToQuery;\n    string attributeToFetch;\n    string agreedValue;\n    mapping(uint => string) anwers;\n    mapping(address => uint) quorum;\n  }\n\n\n  event NewRequest (\n    uint id,\n    string urlToQuery,\n    string attributeToFetch\n  );\n\n\n  event UpdatedRequest (\n    uint id,\n    string urlToQuery,\n    string attributeToFetch,\n    string agreedValue\n  );\n\n  function createRequest (\n    string memory _urlToQuery,\n    string memory _attributeToFetch\n  )\n  public\n  {\n    uint lenght = requests.push(Request(currentId, _urlToQuery, _attributeToFetch, \"\"));\n    Request storage r = requests[lenght-1];\n\n    r.quorum[address(0x6c2339b46F41a06f09CA0051ddAD54D1e582bA77)] = 1;\n    r.quorum[address(0xb5346CF224c02186606e5f89EACC21eC25398077)] = 1;\n    r.quorum[address(0xa2997F1CA363D11a0a35bB1Ac0Ff7849bc13e914)] = 1;\n\n    emit NewRequest (\n      currentId,\n      _urlToQuery,\n      _attributeToFetch\n    );\n\n    currentId++;\n  }\n\n  function updateRequest (\n    uint _id,\n    string memory _valueRetrieved\n  ) public {\n\n    Request storage currRequest = requests[_id];\n\n    if(currRequest.quorum[address(msg.sender)] == 1){\n\n      currRequest.quorum[msg.sender] = 2;\n\n      uint tmpI = 0;\n      bool found = false;\n      while(!found) {\n        if(bytes(currRequest.anwers[tmpI]).length == 0){\n          found = true;\n          currRequest.anwers[tmpI] = _valueRetrieved;\n        }\n        tmpI++;\n      }\n\n      uint currentQuorum = 0;\n\n      for(uint i = 0; i < totalOracleCount; i++){\n        bytes memory a = bytes(currRequest.anwers[i]);\n        bytes memory b = bytes(_valueRetrieved);\n\n        if(keccak256(a) == keccak256(b)){\n          currentQuorum++;\n          if(currentQuorum >= minQuorum){\n            currRequest.agreedValue = _valueRetrieved;\n            emit UpdatedRequest (\n              currRequest.id,\n              currRequest.urlToQuery,\n              currRequest.attributeToFetch,\n              currRequest.agreedValue\n            );\n          }\n        }\n      }\n    }\n  }\n}\n",
  "sourcePath": "/home/alvmorcal1/blockchain/on-chain-oracle/contracts/Oracle.sol",
  "compiler": {
    "name": "solc",
    "version": "0.5.16+commit.9c3226ce.Emscripten.clang"
  },
  "schemaVersion": "3.3.2",
  "updatedAt": "2023-04-29T11:57:39.415Z",
  "networkType": "ethereum",
  "devdoc": {
    "methods": {}
  },
  "userdoc": {
    "methods": {}
  }
}